{
  "contractName": "Mortal",
  "abi": [
    {
      "constant": true,
      "inputs": [],
      "name": "owner",
      "outputs": [
        {
          "name": "",
          "type": "address"
        }
      ],
      "payable": false,
      "stateMutability": "view",
      "type": "function"
    },
    {
      "constant": false,
      "inputs": [
        {
          "name": "_newOwner",
          "type": "address"
        }
      ],
      "name": "changeOwner",
      "outputs": [],
      "payable": false,
      "stateMutability": "nonpayable",
      "type": "function"
    },
    {
      "constant": false,
      "inputs": [],
      "name": "kill",
      "outputs": [],
      "payable": false,
      "stateMutability": "nonpayable",
      "type": "function"
    }
  ],
  "bytecode": "0x6080604052336000806101000a81548173ffffffffffffffffffffffffffffffffffffffff021916908373ffffffffffffffffffffffffffffffffffffffff16021790555061046b806100536000396000f3fe608060405234801561001057600080fd5b50600436106100415760003560e01c806341c0e1b5146100465780638da5cb5b14610050578063a6f9dae11461009a575b600080fd5b61004e6100de565b005b610058610262565b604051808273ffffffffffffffffffffffffffffffffffffffff1673ffffffffffffffffffffffffffffffffffffffff16815260200191505060405180910390f35b6100dc600480360360208110156100b057600080fd5b81019080803573ffffffffffffffffffffffffffffffffffffffff169060200190929190505050610287565b005b6000809054906101000a900473ffffffffffffffffffffffffffffffffffffffff1673ffffffffffffffffffffffffffffffffffffffff163373ffffffffffffffffffffffffffffffffffffffff1614610183576040517f08c379a00000000000000000000000000000000000000000000000000000000081526004018080602001828103825260258152602001806104126025913960400191505060405180910390fd5b6000809054906101000a900473ffffffffffffffffffffffffffffffffffffffff1673ffffffffffffffffffffffffffffffffffffffff163373ffffffffffffffffffffffffffffffffffffffff1614610228576040517f08c379a00000000000000000000000000000000000000000000000000000000081526004018080602001828103825260258152602001806104126025913960400191505060405180910390fd5b6000809054906101000a900473ffffffffffffffffffffffffffffffffffffffff1673ffffffffffffffffffffffffffffffffffffffff16ff5b6000809054906101000a900473ffffffffffffffffffffffffffffffffffffffff1681565b6000809054906101000a900473ffffffffffffffffffffffffffffffffffffffff1673ffffffffffffffffffffffffffffffffffffffff163373ffffffffffffffffffffffffffffffffffffffff161461032c576040517f08c379a00000000000000000000000000000000000000000000000000000000081526004018080602001828103825260258152602001806104126025913960400191505060405180910390fd5b3373ffffffffffffffffffffffffffffffffffffffff168173ffffffffffffffffffffffffffffffffffffffff1614156103ce576040517f08c379a00000000000000000000000000000000000000000000000000000000081526004018080602001828103825260158152602001807f416464726573732063616e6e6f7420626520307830000000000000000000000081525060200191505060405180910390fd5b806000806101000a81548173ffffffffffffffffffffffffffffffffffffffff021916908373ffffffffffffffffffffffffffffffffffffffff1602179055505056fe596f7520617265206e6f7420746865206f776e6572206f662074686520636f6e7472616374a265627a7a723058205c72ec3428adf523eea2e384d6e1b52109e3ae5c71ad1476a748337099bfe20364736f6c63430005090032",
  "source": "pragma solidity ^0.5.9;\n\ncontract Owned {\n    \n    address payable public owner;\n\n    modifier onlyOwner(){\n        require(msg.sender == owner, \"You are not the owner of the contract\");\n        _;\n    }\n   \n    constructor() public {\n        owner = msg.sender;\n    }\n\n    function changeOwner(address payable _newOwner) public onlyOwner {\n        require(_newOwner != msg.sender,\"Address cannot be 0x0\");\n        owner = _newOwner;\n    }\n}\n\ncontract Mortal is Owned {\n\n    function kill() public onlyOwner{\n        require(msg.sender == owner,\"You are not the owner of the contract\");\n        selfdestruct(owner);\n    }\n}",
  "sourcePath": "/home/mohan/Documents/kyc/contracts/Mortal.sol",
  "compiler": {
    "name": "solc",
    "version": "0.5.9+commit.e560f70d.Emscripten.clang"
  },
  "schemaVersion": "3.0.23",
  "updatedAt": "2020-02-04T09:27:39.222Z",
  "networkType": "ethereum",
  "devdoc": {
    "methods": {}
  },
  "userdoc": {
    "methods": {}
  }
}