{
  "contractName": "ProveDatabase",
  "abi": [
    {
      "constant": true,
      "inputs": [
        {
          "name": "",
          "type": "uint256"
        }
      ],
      "name": "userArr",
      "outputs": [
        {
          "name": "",
          "type": "address"
        }
      ],
      "payable": false,
      "stateMutability": "view",
      "type": "function"
    },
    {
      "constant": false,
      "inputs": [],
      "name": "kill",
      "outputs": [],
      "payable": false,
      "stateMutability": "nonpayable",
      "type": "function"
    },
    {
      "constant": true,
      "inputs": [],
      "name": "stopped",
      "outputs": [
        {
          "name": "",
          "type": "bool"
        }
      ],
      "payable": false,
      "stateMutability": "view",
      "type": "function"
    },
    {
      "constant": true,
      "inputs": [],
      "name": "owner",
      "outputs": [
        {
          "name": "",
          "type": "address"
        }
      ],
      "payable": false,
      "stateMutability": "view",
      "type": "function"
    },
    {
      "constant": true,
      "inputs": [
        {
          "name": "",
          "type": "uint256"
        }
      ],
      "name": "allowedContractsKeys",
      "outputs": [
        {
          "name": "",
          "type": "address"
        }
      ],
      "payable": false,
      "stateMutability": "view",
      "type": "function"
    },
    {
      "constant": false,
      "inputs": [
        {
          "name": "_newOwner",
          "type": "address"
        }
      ],
      "name": "changeOwner",
      "outputs": [],
      "payable": false,
      "stateMutability": "nonpayable",
      "type": "function"
    },
    {
      "payable": true,
      "stateMutability": "payable",
      "type": "fallback"
    },
    {
      "anonymous": false,
      "inputs": [
        {
          "indexed": false,
          "name": "_senderaddr",
          "type": "address"
        },
        {
          "indexed": false,
          "name": "_value",
          "type": "uint256"
        }
      ],
      "name": "LogFallback",
      "type": "event"
    },
    {
      "constant": false,
      "inputs": [
        {
          "name": "_addr",
          "type": "address"
        }
      ],
      "name": "addAllowedContractOrOwner",
      "outputs": [
        {
          "name": "",
          "type": "bool"
        }
      ],
      "payable": false,
      "stateMutability": "nonpayable",
      "type": "function"
    },
    {
      "constant": true,
      "inputs": [
        {
          "name": "_addr",
          "type": "address"
        }
      ],
      "name": "isAllowedContractOrOwner",
      "outputs": [
        {
          "name": "",
          "type": "bool"
        }
      ],
      "payable": false,
      "stateMutability": "view",
      "type": "function"
    },
    {
      "constant": false,
      "inputs": [
        {
          "name": "caller",
          "type": "address"
        },
        {
          "name": "_docHash",
          "type": "bytes32"
        },
        {
          "name": "_userName",
          "type": "bytes32"
        },
        {
          "name": "_ipfsHash",
          "type": "bytes"
        },
        {
          "name": "_docTags",
          "type": "bytes"
        }
      ],
      "name": "addFile",
      "outputs": [
        {
          "name": "",
          "type": "bool"
        }
      ],
      "payable": false,
      "stateMutability": "nonpayable",
      "type": "function"
    },
    {
      "constant": true,
      "inputs": [
        {
          "name": "caller",
          "type": "address"
        },
        {
          "name": "_docHash",
          "type": "bytes32"
        }
      ],
      "name": "getFile",
      "outputs": [
        {
          "name": "",
          "type": "bytes32"
        },
        {
          "name": "",
          "type": "bytes32"
        },
        {
          "name": "",
          "type": "uint256"
        },
        {
          "name": "",
          "type": "bytes"
        },
        {
          "name": "",
          "type": "bytes"
        }
      ],
      "payable": false,
      "stateMutability": "view",
      "type": "function"
    },
    {
      "constant": true,
      "inputs": [],
      "name": "checkBalance",
      "outputs": [
        {
          "name": "",
          "type": "uint256"
        }
      ],
      "payable": false,
      "stateMutability": "view",
      "type": "function"
    }
  ],
  "bytecode": "0x60806040526000600760006101000a81548160ff021916908315150217905550336000806101000a81548173ffffffffffffffffffffffffffffffffffffffff021916908373ffffffffffffffffffffffffffffffffffffffff16021790555061148d8061006e6000396000f3fe60806040526004361061009c5760003560e01c806375f12b211161006457806375f12b211461057d5780638da5cb5b146105ac578063a111c91114610603578063a6f9dae11461067e578063c71daccb146106cf578063d8b4cc70146106fa5761009c565b8063028993ba14610182578063057d7781146101eb57806305950b53146102665780632197dc2e146103bb57806341c0e1b514610566575b60008036905014610115576040517f08c379a000000000000000000000000000000000000000000000000000000000815260040180806020018281038252601a8152602001807f4d657373616765204c656e677468206973206e6f74207a65726f00000000000081525060200191505060405180910390fd5b7fc04e16d4878a87a7d627a5fb8c387ac4a2169e45f86d1935cc739c196c8a57153334604051808373ffffffffffffffffffffffffffffffffffffffff1673ffffffffffffffffffffffffffffffffffffffff1681526020018281526020019250505060405180910390a1005b34801561018e57600080fd5b506101d1600480360360208110156101a557600080fd5b81019080803573ffffffffffffffffffffffffffffffffffffffff169060200190929190505050610763565b604051808215151515815260200191505060405180910390f35b3480156101f757600080fd5b506102246004803603602081101561020e57600080fd5b81019080803590602001909291905050506107b9565b604051808273ffffffffffffffffffffffffffffffffffffffff1673ffffffffffffffffffffffffffffffffffffffff16815260200191505060405180910390f35b34801561027257600080fd5b506102bf6004803603604081101561028957600080fd5b81019080803573ffffffffffffffffffffffffffffffffffffffff169060200190929190803590602001909291905050506107f5565b604051808681526020018581526020018481526020018060200180602001838103835285818151815260200191508051906020019080838360005b838110156103155780820151818401526020810190506102fa565b50505050905090810190601f1680156103425780820380516001836020036101000a031916815260200191505b50838103825284818151815260200191508051906020019080838360005b8381101561037b578082015181840152602081019050610360565b50505050905090810190601f1680156103a85780820380516001836020036101000a031916815260200191505b5097505050505050505060405180910390f35b3480156103c757600080fd5b5061054c600480360360a08110156103de57600080fd5b81019080803573ffffffffffffffffffffffffffffffffffffffff16906020019092919080359060200190929190803590602001909291908035906020019064010000000081111561042f57600080fd5b82018360208201111561044157600080fd5b8035906020019184600183028401116401000000008311171561046357600080fd5b91908080601f016020809104026020016040519081016040528093929190818152602001838380828437600081840152601f19601f820116905080830192505050505050509192919290803590602001906401000000008111156104c657600080fd5b8201836020820111156104d857600080fd5b803590602001918460018302840111640100000000831117156104fa57600080fd5b91908080601f016020809104026020016040519081016040528093929190818152602001838380828437600081840152601f19601f820116905080830192505050505050509192919290505050610b7a565b604051808215151515815260200191505060405180910390f35b34801561057257600080fd5b5061057b610e1c565b005b34801561058957600080fd5b50610592610fa0565b604051808215151515815260200191505060405180910390f35b3480156105b857600080fd5b506105c1610fb3565b604051808273ffffffffffffffffffffffffffffffffffffffff1673ffffffffffffffffffffffffffffffffffffffff16815260200191505060405180910390f35b34801561060f57600080fd5b5061063c6004803603602081101561062657600080fd5b8101908080359060200190929190505050610fd8565b604051808273ffffffffffffffffffffffffffffffffffffffff1673ffffffffffffffffffffffffffffffffffffffff16815260200191505060405180910390f35b34801561068a57600080fd5b506106cd600480360360208110156106a157600080fd5b81019080803573ffffffffffffffffffffffffffffffffffffffff169060200190929190505050611014565b005b3480156106db57600080fd5b506106e461119e565b6040518082815260200191505060405180910390f35b34801561070657600080fd5b506107496004803603602081101561071d57600080fd5b81019080803573ffffffffffffffffffffffffffffffffffffffff1690602001909291905050506111bd565b604051808215151515815260200191505060405180910390f35b6000600360008373ffffffffffffffffffffffffffffffffffffffff1673ffffffffffffffffffffffffffffffffffffffff16815260200190815260200160002060009054906101000a900460ff169050919050565b600281815481106107c657fe5b906000526020600020016000915054906101000a900473ffffffffffffffffffffffffffffffffffffffff1681565b60008060006060806000801b861415610876576040517f08c379a00000000000000000000000000000000000000000000000000000000081526004018080602001828103825260168152602001807f46696c652048617368206973206d616e6461746f72790000000000000000000081525060200191505060405180910390fd5b6000600460008973ffffffffffffffffffffffffffffffffffffffff1673ffffffffffffffffffffffffffffffffffffffff1681526020019081526020016000206002016000888152602001908152602001600020905060008090505b600280549050811015610a15576000801b60046000600284815481106108f557fe5b9060005260206000200160009054906101000a900473ffffffffffffffffffffffffffffffffffffffff1673ffffffffffffffffffffffffffffffffffffffff1673ffffffffffffffffffffffffffffffffffffffff16815260200190815260200160002060020160008a81526020019081526020016000206000015414610a0857600460006002838154811061098857fe5b9060005260206000200160009054906101000a900473ffffffffffffffffffffffffffffffffffffffff1673ffffffffffffffffffffffffffffffffffffffff1673ffffffffffffffffffffffffffffffffffffffff16815260200190815260200160002060020160008981526020019081526020016000209150610a15565b80806001019150506108d3565b508060000154816001015482600201548360030184600401818054600181600116156101000203166002900480601f016020809104026020016040519081016040528092919081815260200182805460018160011615610100020316600290048015610ac25780601f10610a9757610100808354040283529160200191610ac2565b820191906000526020600020905b815481529060010190602001808311610aa557829003601f168201915b50505050509150808054600181600116156101000203166002900480601f016020809104026020016040519081016040528092919081815260200182805460018160011615610100020316600290048015610b5e5780601f10610b3357610100808354040283529160200191610b5e565b820191906000526020600020905b815481529060010190602001808311610b4157829003601f168201915b5050505050905095509550955095509550509295509295909350565b60008060001b600460008873ffffffffffffffffffffffffffffffffffffffff1673ffffffffffffffffffffffffffffffffffffffff1681526020019081526020016000206002016000878152602001908152602001600020600001541415610e0e5760028690806001815401808255809150509060018203906000526020600020016000909192909190916101000a81548173ffffffffffffffffffffffffffffffffffffffff021916908373ffffffffffffffffffffffffffffffffffffffff1602179055505033600460008873ffffffffffffffffffffffffffffffffffffffff1673ffffffffffffffffffffffffffffffffffffffff16815260200190815260200160002060000160006101000a81548173ffffffffffffffffffffffffffffffffffffffff021916908373ffffffffffffffffffffffffffffffffffffffff160217905550600460008773ffffffffffffffffffffffffffffffffffffffff1673ffffffffffffffffffffffffffffffffffffffff1681526020019081526020016000206001018590806001815401808255809150509060018203906000526020600020016000909192909190915055506040518060a0016040528086815260200185815260200142815260200184815260200183815250600460008873ffffffffffffffffffffffffffffffffffffffff1673ffffffffffffffffffffffffffffffffffffffff16815260200190815260200160002060020160008781526020019081526020016000206000820151816000015560208201518160010155604082015181600201556060820151816003019080519060200190610de492919061138e565b506080820151816004019080519060200190610e0192919061138e565b5090505060019050610e13565b600090505b95945050505050565b6000809054906101000a900473ffffffffffffffffffffffffffffffffffffffff1673ffffffffffffffffffffffffffffffffffffffff163373ffffffffffffffffffffffffffffffffffffffff1614610ec1576040517f08c379a00000000000000000000000000000000000000000000000000000000081526004018080602001828103825260258152602001806114346025913960400191505060405180910390fd5b6000809054906101000a900473ffffffffffffffffffffffffffffffffffffffff1673ffffffffffffffffffffffffffffffffffffffff163373ffffffffffffffffffffffffffffffffffffffff1614610f66576040517f08c379a00000000000000000000000000000000000000000000000000000000081526004018080602001828103825260258152602001806114346025913960400191505060405180910390fd5b6000809054906101000a900473ffffffffffffffffffffffffffffffffffffffff1673ffffffffffffffffffffffffffffffffffffffff16ff5b600760009054906101000a900460ff1681565b6000809054906101000a900473ffffffffffffffffffffffffffffffffffffffff1681565b60018181548110610fe557fe5b906000526020600020016000915054906101000a900473ffffffffffffffffffffffffffffffffffffffff1681565b6000809054906101000a900473ffffffffffffffffffffffffffffffffffffffff1673ffffffffffffffffffffffffffffffffffffffff163373ffffffffffffffffffffffffffffffffffffffff16146110b9576040517f08c379a00000000000000000000000000000000000000000000000000000000081526004018080602001828103825260258152602001806114346025913960400191505060405180910390fd5b3373ffffffffffffffffffffffffffffffffffffffff168173ffffffffffffffffffffffffffffffffffffffff16141561115b576040517f08c379a00000000000000000000000000000000000000000000000000000000081526004018080602001828103825260158152602001807f416464726573732063616e6e6f7420626520307830000000000000000000000081525060200191505060405180910390fd5b806000806101000a81548173ffffffffffffffffffffffffffffffffffffffff021916908373ffffffffffffffffffffffffffffffffffffffff16021790555050565b60003073ffffffffffffffffffffffffffffffffffffffff1631905090565b60008060009054906101000a900473ffffffffffffffffffffffffffffffffffffffff1673ffffffffffffffffffffffffffffffffffffffff163373ffffffffffffffffffffffffffffffffffffffff1614611264576040517f08c379a00000000000000000000000000000000000000000000000000000000081526004018080602001828103825260258152602001806114346025913960400191505060405180910390fd5b60001515600360008473ffffffffffffffffffffffffffffffffffffffff1673ffffffffffffffffffffffffffffffffffffffff16815260200190815260200160002060009054906101000a900460ff1615151415611384576001600360008473ffffffffffffffffffffffffffffffffffffffff1673ffffffffffffffffffffffffffffffffffffffff16815260200190815260200160002060006101000a81548160ff02191690831515021790555060018290806001815401808255809150509060018203906000526020600020016000909192909190916101000a81548173ffffffffffffffffffffffffffffffffffffffff021916908373ffffffffffffffffffffffffffffffffffffffff1602179055505060019050611389565b600090505b919050565b828054600181600116156101000203166002900490600052602060002090601f016020900481019282601f106113cf57805160ff19168380011785556113fd565b828001600101855582156113fd579182015b828111156113fc5782518255916020019190600101906113e1565b5b50905061140a919061140e565b5090565b61143091905b8082111561142c576000816000905550600101611414565b5090565b9056fe596f7520617265206e6f7420746865206f776e6572206f662074686520636f6e7472616374a265627a7a72305820774f1e502f7897801c0f76064f497a6293b732e0f7b437288204dc72f8a4887c64736f6c63430005090032",
  "source": "pragma solidity ^0.5.9;\n\nimport \"./Mortal.sol\";\n\ncontract ProveDatabase  is Mortal {\n    \n    struct File {\n        bytes32 docHash;\n        bytes32 userName;\n        uint docTimestamp;\n        bytes ipfsHash;\n        bytes docTags;\n    }\n\n    struct User {\n        address addr;\n        bytes32[] documentList;\n        mapping(bytes32 => File) documentDetails;\n    }\n\n    struct UserUsageCount {\n        uint uploadTime;\n        uint count;\n    }\n    \n    address[] public allowedContractsKeys;\n    address[] public userArr;\n    mapping(address => bool) allowedContracts;\n    mapping( address => User )  users;\n    mapping( address => bool )  admins;\n    mapping( bytes32 => File )  files;\n    bool public stopped = false;\n    \n    event LogFallback(address _senderaddr,uint _value);\n  \n    modifier onlyAllowedContractOrOwner {\n        require (allowedContracts[msg.sender] != true && msg.sender != owner,\"Should be a owner\");\n        _;\n    }\n\n    function addAllowedContractOrOwner(address _addr) public onlyOwner returns(bool) {\n        if( allowedContracts[_addr] == false ) {\n            allowedContracts[_addr] = true;\n            allowedContractsKeys.push(_addr);\n            return true;\n        }\n        return false;\n    }\n\n    function isAllowedContractOrOwner(address _addr) public view returns(bool) {\n        return allowedContracts[_addr];\n    }\n    \n    function addFile(address caller, bytes32 _docHash, bytes32 _userName, bytes memory _ipfsHash, bytes memory _docTags) public returns(bool) {\n        if(users[caller].documentDetails[_docHash].docHash == 0x0 ){\n            userArr.push(caller);\n            users[caller].addr = msg.sender;\n            users[caller].documentList.push(_docHash);\n            users[caller].documentDetails[_docHash] = File(_docHash, _userName,block.timestamp,_ipfsHash,_docTags);\n            return true;\n        }\n        return false;\n    }\n    \n    function getFile(address caller,bytes32 _docHash) public view returns(bytes32, bytes32, uint, bytes memory, bytes memory){\n        require(_docHash != 0x0, \"File Hash is mandatory\");\n        File storage document = users[caller].documentDetails[_docHash];\n        for (uint i = 0; i < userArr.length; i++){  // Go through all the users to see if file exists.\n            if (users[userArr[i]].documentDetails[_docHash].docHash != 0x0 ) {\n                document = users[userArr[i]].documentDetails[_docHash];\n                break;\n            } \n        }\n        return(document.docHash,document.userName,document.docTimestamp,document.ipfsHash,document.docTags);\n    }\n    \n    function checkBalance() public view returns(uint){\n        return address(this).balance;\n    }\n    \n    function () external payable {\n        require(msg.data.length == 0,\"Message Length is not zero\");\n        emit LogFallback(msg.sender,msg.value);\n    }\n\n}   \n",
  "sourcePath": "/home/mohan/Documents/kyc/contracts/ProveDatabase.sol",
  "compiler": {
    "name": "solc",
    "version": "0.5.9+commit.e560f70d.Emscripten.clang"
  },
  "schemaVersion": "3.0.23",
  "updatedAt": "2020-02-04T09:27:39.233Z",
  "networkType": "ethereum",
  "devdoc": {
    "methods": {}
  },
  "userdoc": {
    "methods": {}
  }
}