{
  "contractName": "Prove",
  "abi": [
    {
      "constant": true,
      "inputs": [],
      "name": "storageDatabase",
      "outputs": [
        {
          "name": "",
          "type": "address"
        }
      ],
      "payable": false,
      "stateMutability": "view",
      "type": "function"
    },
    {
      "constant": false,
      "inputs": [],
      "name": "kill",
      "outputs": [],
      "payable": false,
      "stateMutability": "nonpayable",
      "type": "function"
    },
    {
      "constant": true,
      "inputs": [],
      "name": "stopped",
      "outputs": [
        {
          "name": "",
          "type": "bool"
        }
      ],
      "payable": false,
      "stateMutability": "view",
      "type": "function"
    },
    {
      "constant": true,
      "inputs": [],
      "name": "owner",
      "outputs": [
        {
          "name": "",
          "type": "address"
        }
      ],
      "payable": false,
      "stateMutability": "view",
      "type": "function"
    },
    {
      "constant": false,
      "inputs": [
        {
          "name": "_newOwner",
          "type": "address"
        }
      ],
      "name": "changeOwner",
      "outputs": [],
      "payable": false,
      "stateMutability": "nonpayable",
      "type": "function"
    },
    {
      "inputs": [
        {
          "name": "_storageDatabase",
          "type": "address"
        }
      ],
      "payable": false,
      "stateMutability": "nonpayable",
      "type": "constructor"
    },
    {
      "payable": true,
      "stateMutability": "payable",
      "type": "fallback"
    },
    {
      "anonymous": false,
      "inputs": [
        {
          "indexed": false,
          "name": "_senderaddr",
          "type": "address"
        },
        {
          "indexed": false,
          "name": "_value",
          "type": "uint256"
        }
      ],
      "name": "LogFallback",
      "type": "event"
    },
    {
      "anonymous": false,
      "inputs": [
        {
          "indexed": false,
          "name": "_addr",
          "type": "address"
        },
        {
          "indexed": false,
          "name": "_userName",
          "type": "bytes32"
        },
        {
          "indexed": false,
          "name": "_dochash",
          "type": "bytes32"
        },
        {
          "indexed": false,
          "name": "_docTimestamp",
          "type": "uint256"
        },
        {
          "indexed": false,
          "name": "_ipfsHash",
          "type": "bytes"
        },
        {
          "indexed": false,
          "name": "_notes",
          "type": "string"
        }
      ],
      "name": "LogUploadFile",
      "type": "event"
    },
    {
      "constant": false,
      "inputs": [
        {
          "name": "_storageDatabase",
          "type": "address"
        }
      ],
      "name": "setstorageDatabase",
      "outputs": [
        {
          "name": "",
          "type": "bool"
        }
      ],
      "payable": false,
      "stateMutability": "nonpayable",
      "type": "function"
    },
    {
      "constant": false,
      "inputs": [
        {
          "name": "_docHash",
          "type": "bytes32"
        },
        {
          "name": "_userName",
          "type": "bytes32"
        },
        {
          "name": "_ipfsHash",
          "type": "bytes"
        },
        {
          "name": "_docTags",
          "type": "bytes"
        }
      ],
      "name": "uploadFile",
      "outputs": [
        {
          "name": "",
          "type": "bool"
        }
      ],
      "payable": false,
      "stateMutability": "nonpayable",
      "type": "function"
    },
    {
      "constant": true,
      "inputs": [
        {
          "name": "_docHash",
          "type": "bytes32"
        }
      ],
      "name": "retrieveFile",
      "outputs": [
        {
          "name": "",
          "type": "bytes32"
        },
        {
          "name": "",
          "type": "bytes32"
        },
        {
          "name": "",
          "type": "uint256"
        },
        {
          "name": "",
          "type": "bytes"
        },
        {
          "name": "",
          "type": "bytes"
        }
      ],
      "payable": false,
      "stateMutability": "view",
      "type": "function"
    },
    {
      "constant": true,
      "inputs": [],
      "name": "checkBalance",
      "outputs": [
        {
          "name": "",
          "type": "uint256"
        }
      ],
      "payable": false,
      "stateMutability": "view",
      "type": "function"
    }
  ],
  "bytecode": "0x60806040526000600160146101000a81548160ff02191690831515021790555034801561002b57600080fd5b506040516113653803806113658339818101604052602081101561004e57600080fd5b8101908080519060200190929190505050336000806101000a81548173ffffffffffffffffffffffffffffffffffffffff021916908373ffffffffffffffffffffffffffffffffffffffff160217905550336000806101000a81548173ffffffffffffffffffffffffffffffffffffffff021916908373ffffffffffffffffffffffffffffffffffffffff16021790555080600160006101000a81548173ffffffffffffffffffffffffffffffffffffffff021916908373ffffffffffffffffffffffffffffffffffffffff16021790555050611235806101306000396000f3fe6080604052600436106100865760003560e01c806387ebbf671161005957806387ebbf67146103775780638da5cb5b146104ac578063a6f9dae114610503578063c71daccb14610554578063da46d05a1461057f57610086565b806304399bbf1461014f57806313cf9f84146101a657806341c0e1b51461033157806375f12b2114610348575b600080369050146100e2576040517f08c379a000000000000000000000000000000000000000000000000000000000815260040180806020018281038252602281526020018061111b6022913960400191505060405180910390fd5b7fc04e16d4878a87a7d627a5fb8c387ac4a2169e45f86d1935cc739c196c8a57153334604051808373ffffffffffffffffffffffffffffffffffffffff1673ffffffffffffffffffffffffffffffffffffffff1681526020018281526020019250505060405180910390a1005b34801561015b57600080fd5b506101646105e8565b604051808273ffffffffffffffffffffffffffffffffffffffff1673ffffffffffffffffffffffffffffffffffffffff16815260200191505060405180910390f35b3480156101b257600080fd5b50610317600480360360808110156101c957600080fd5b810190808035906020019092919080359060200190929190803590602001906401000000008111156101fa57600080fd5b82018360208201111561020c57600080fd5b8035906020019184600183028401116401000000008311171561022e57600080fd5b91908080601f016020809104026020016040519081016040528093929190818152602001838380828437600081840152601f19601f8201169050808301925050505050505091929192908035906020019064010000000081111561029157600080fd5b8201836020820111156102a357600080fd5b803590602001918460018302840111640100000000831117156102c557600080fd5b91908080601f016020809104026020016040519081016040528093929190818152602001838380828437600081840152601f19601f82011690508083019250505050505050919291929050505061060e565b604051808215151515815260200191505060405180910390f35b34801561033d57600080fd5b50610346610a7c565b005b34801561035457600080fd5b5061035d610c00565b604051808215151515815260200191505060405180910390f35b34801561038357600080fd5b506103b06004803603602081101561039a57600080fd5b8101908080359060200190929190505050610c13565b604051808681526020018581526020018481526020018060200180602001838103835285818151815260200191508051906020019080838360005b838110156104065780820151818401526020810190506103eb565b50505050905090810190601f1680156104335780820380516001836020036101000a031916815260200191505b50838103825284818151815260200191508051906020019080838360005b8381101561046c578082015181840152602081019050610451565b50505050905090810190601f1680156104995780820380516001836020036101000a031916815260200191505b5097505050505050505060405180910390f35b3480156104b857600080fd5b506104c1610e5b565b604051808273ffffffffffffffffffffffffffffffffffffffff1673ffffffffffffffffffffffffffffffffffffffff16815260200191505060405180910390f35b34801561050f57600080fd5b506105526004803603602081101561052657600080fd5b81019080803573ffffffffffffffffffffffffffffffffffffffff169060200190929190505050610e80565b005b34801561056057600080fd5b5061056961100a565b6040518082815260200191505060405180910390f35b34801561058b57600080fd5b506105ce600480360360208110156105a257600080fd5b81019080803573ffffffffffffffffffffffffffffffffffffffff169060200190929190505050611029565b604051808215151515815260200191505060405180910390f35b600160009054906101000a900473ffffffffffffffffffffffffffffffffffffffff1681565b60008060001b85141561066c576040517f08c379a000000000000000000000000000000000000000000000000000000000815260040180806020018281038252602581526020018061118e6025913960400191505060405180910390fd5b6040602060ff1611156106ca576040517f08c379a00000000000000000000000000000000000000000000000000000000081526004018080602001828103825260298152602001806111b36029913960400191505060405180910390fd5b604083511115610725576040517f08c379a000000000000000000000000000000000000000000000000000000000815260040180806020018281038252602981526020018061113d6029913960400191505060405180910390fd5b604082511115610780576040517f08c379a00000000000000000000000000000000000000000000000000000000081526004018080602001828103825260288152602001806111666028913960400191505060405180910390fd5b600080600160009054906101000a900473ffffffffffffffffffffffffffffffffffffffff1690508073ffffffffffffffffffffffffffffffffffffffff16632197dc2e33898989896040518663ffffffff1660e01b8152600401808673ffffffffffffffffffffffffffffffffffffffff1673ffffffffffffffffffffffffffffffffffffffff1681526020018581526020018481526020018060200180602001838103835285818151815260200191508051906020019080838360005b8381101561085a57808201518184015260208101905061083f565b50505050905090810190601f1680156108875780820380516001836020036101000a031916815260200191505b50838103825284818151815260200191508051906020019080838360005b838110156108c05780820151818401526020810190506108a5565b50505050905090810190601f1680156108ed5780820380516001836020036101000a031916815260200191505b50975050505050505050602060405180830381600087803b15801561091157600080fd5b505af1158015610925573d6000803e3d6000fd5b505050506040513d602081101561093b57600080fd5b810190808051906020019092919050505091507f24f0a79b9cc4eb5e706c1074e6ac70956430d377c0077f7f7b02921c2318c6973387894289604051808673ffffffffffffffffffffffffffffffffffffffff1673ffffffffffffffffffffffffffffffffffffffff1681526020018581526020018481526020018381526020018060200180602001838103835284818151815260200191508051906020019080838360005b838110156109fc5780820151818401526020810190506109e1565b50505050905090810190601f168015610a295780820380516001836020036101000a031916815260200191505b50838103825260068152602001807f75706c6f6164000000000000000000000000000000000000000000000000000081525060200197505050505050505060405180910390a18192505050949350505050565b6000809054906101000a900473ffffffffffffffffffffffffffffffffffffffff1673ffffffffffffffffffffffffffffffffffffffff163373ffffffffffffffffffffffffffffffffffffffff1614610b21576040517f08c379a00000000000000000000000000000000000000000000000000000000081526004018080602001828103825260258152602001806111dc6025913960400191505060405180910390fd5b6000809054906101000a900473ffffffffffffffffffffffffffffffffffffffff1673ffffffffffffffffffffffffffffffffffffffff163373ffffffffffffffffffffffffffffffffffffffff1614610bc6576040517f08c379a00000000000000000000000000000000000000000000000000000000081526004018080602001828103825260258152602001806111dc6025913960400191505060405180910390fd5b6000809054906101000a900473ffffffffffffffffffffffffffffffffffffffff1673ffffffffffffffffffffffffffffffffffffffff16ff5b600160149054906101000a900460ff1681565b60008060006060806000801b861415610c77576040517f08c379a000000000000000000000000000000000000000000000000000000000815260040180806020018281038252602581526020018061118e6025913960400191505060405180910390fd5b6000600160009054906101000a900473ffffffffffffffffffffffffffffffffffffffff16905060008060006060808573ffffffffffffffffffffffffffffffffffffffff166305950b53338e6040518363ffffffff1660e01b8152600401808373ffffffffffffffffffffffffffffffffffffffff1673ffffffffffffffffffffffffffffffffffffffff1681526020018281526020019250505060006040518083038186803b158015610d2b57600080fd5b505afa158015610d3f573d6000803e3d6000fd5b505050506040513d6000823e3d601f19601f8201168201806040525060a0811015610d6957600080fd5b810190808051906020019092919080519060200190929190805190602001909291908051640100000000811115610d9f57600080fd5b82810190506020810184811115610db557600080fd5b8151856001820283011164010000000082111715610dd257600080fd5b50509291906020018051640100000000811115610dee57600080fd5b82810190506020810184811115610e0457600080fd5b8151856001820283011164010000000082111715610e2157600080fd5b5050929190505050809550819650829750839850849950505050505084848484849a509a509a509a509a5050505050505091939590929450565b6000809054906101000a900473ffffffffffffffffffffffffffffffffffffffff1681565b6000809054906101000a900473ffffffffffffffffffffffffffffffffffffffff1673ffffffffffffffffffffffffffffffffffffffff163373ffffffffffffffffffffffffffffffffffffffff1614610f25576040517f08c379a00000000000000000000000000000000000000000000000000000000081526004018080602001828103825260258152602001806111dc6025913960400191505060405180910390fd5b3373ffffffffffffffffffffffffffffffffffffffff168173ffffffffffffffffffffffffffffffffffffffff161415610fc7576040517f08c379a00000000000000000000000000000000000000000000000000000000081526004018080602001828103825260158152602001807f416464726573732063616e6e6f7420626520307830000000000000000000000081525060200191505060405180910390fd5b806000806101000a81548173ffffffffffffffffffffffffffffffffffffffff021916908373ffffffffffffffffffffffffffffffffffffffff16021790555050565b60003073ffffffffffffffffffffffffffffffffffffffff1631905090565b60008060009054906101000a900473ffffffffffffffffffffffffffffffffffffffff1673ffffffffffffffffffffffffffffffffffffffff163373ffffffffffffffffffffffffffffffffffffffff16146110d0576040517f08c379a00000000000000000000000000000000000000000000000000000000081526004018080602001828103825260258152602001806111dc6025913960400191505060405180910390fd5b81600160006101000a81548173ffffffffffffffffffffffffffffffffffffffff021916908373ffffffffffffffffffffffffffffffffffffffff1602179055506001905091905056fe4c656e677468206f6620746865206d657373616765206973206e6f74207a65726f2e5468652069706673486173682073686f756c64206265206c657373207468616e20363420627974657354686520646f63546167732073686f756c64206265206c657373207468616e203634206279746573506c6561736520656e746572206120636f727265637420646f63756d656e7420686173682e54686520757365724e616d652073686f756c64206265206c657373207468616e203634206279746573596f7520617265206e6f7420746865206f776e6572206f662074686520636f6e7472616374a265627a7a723058207c9bcf8c592c09bc38bf63365978b362302d1c759b36331bd0a620d16a34284e64736f6c63430005090032",
  "source": "pragma solidity ^0.5.9;\n\nimport \"./ProveDatabase.sol\";\nimport \"./Mortal.sol\";\n\ncontract Prove is Mortal {\n\n    address payable public storageDatabase;\n    bool public stopped = false;\n\n    struct File {\n        string ipfsHash;\n        bytes32 docHash;\n        uint documentTimeStamp;\n    }\n\n    constructor(address payable _storageDatabase) public {\n        owner = msg.sender;\n        storageDatabase = _storageDatabase;\n    }\n\n    function setstorageDatabase(address payable _storageDatabase) public onlyOwner returns(bool){\n        storageDatabase = _storageDatabase;\n        return true;\n    }\n\n    event LogFallback(address _senderaddr,uint _value);\n    event LogUploadFile(address _addr, bytes32 _userName, bytes32 _dochash, uint _docTimestamp, bytes _ipfsHash, string _notes);\n\n    function uploadFile(bytes32 _docHash, bytes32 _userName, bytes memory _ipfsHash,bytes memory _docTags) public returns(bool) {\n\n        require(_docHash != 0x0,\"Please enter a correct document hash.\");\n        require(_userName.length <= 64,\"The userName should be less than 64 bytes\");\n        require(_ipfsHash.length <= 64,\"The ipfsHash should be less than 64 bytes\");\n        require(_docTags.length <= 64,\"The docTags should be less than 64 bytes\");\n\n        bool status;\n        ProveDatabase proveDatabase = ProveDatabase(storageDatabase);\n\n        status = proveDatabase.addFile(msg.sender,_docHash,_userName,_ipfsHash,_docTags);\n        emit LogUploadFile(msg.sender, _userName,_docHash, block.timestamp,_ipfsHash, \"upload\");\n\n        return status;\n    }\n\n    function retrieveFile(bytes32 _docHash) public view returns(bytes32,bytes32,uint,bytes memory,bytes memory) {\n\n        require(_docHash != 0x0, \"Please enter a correct document hash.\");\n        ProveDatabase proveDatabase = ProveDatabase(storageDatabase);\n        bytes32 docHash;\n        bytes32 userName;\n        uint documentTimeStamp;\n        bytes memory ipfsHash;\n        bytes memory docTags;\n        (docHash,userName,documentTimeStamp,ipfsHash,docTags) = proveDatabase.getFile(msg.sender,_docHash);\n        return(docHash,userName,documentTimeStamp,ipfsHash,docTags);\n    }\n\n\n    function checkBalance() public view returns(uint){\n        return address(this).balance;\n    }\n\n    function () external payable {\n        require(msg.data.length == 0,\"Length of the message is not zero.\");\n        emit LogFallback(msg.sender,msg.value);\n    }\n\n}\n",
  "sourcePath": "/home/mohan/Documents/kyc/contracts/Prove.sol",
  "compiler": {
    "name": "solc",
    "version": "0.5.9+commit.e560f70d.Emscripten.clang"
  },
  "schemaVersion": "3.0.23",
  "updatedAt": "2020-02-04T09:27:39.238Z",
  "networkType": "ethereum",
  "devdoc": {
    "methods": {}
  },
  "userdoc": {
    "methods": {}
  }
}